{
  "_format": "hh-sol-artifact-1",
  "contractName": "TuringToken",
  "sourceName": "contracts/Turing.sol",
  "abi": [
    {
      "inputs": [],
      "stateMutability": "nonpayable",
      "type": "constructor"
    },
    {
      "inputs": [
        {
          "internalType": "address",
          "name": "spender",
          "type": "address"
        },
        {
          "internalType": "uint256",
          "name": "allowance",
          "type": "uint256"
        },
        {
          "internalType": "uint256",
          "name": "needed",
          "type": "uint256"
        }
      ],
      "name": "ERC20InsufficientAllowance",
      "type": "error"
    },
    {
      "inputs": [
        {
          "internalType": "address",
          "name": "sender",
          "type": "address"
        },
        {
          "internalType": "uint256",
          "name": "balance",
          "type": "uint256"
        },
        {
          "internalType": "uint256",
          "name": "needed",
          "type": "uint256"
        }
      ],
      "name": "ERC20InsufficientBalance",
      "type": "error"
    },
    {
      "inputs": [
        {
          "internalType": "address",
          "name": "approver",
          "type": "address"
        }
      ],
      "name": "ERC20InvalidApprover",
      "type": "error"
    },
    {
      "inputs": [
        {
          "internalType": "address",
          "name": "receiver",
          "type": "address"
        }
      ],
      "name": "ERC20InvalidReceiver",
      "type": "error"
    },
    {
      "inputs": [
        {
          "internalType": "address",
          "name": "sender",
          "type": "address"
        }
      ],
      "name": "ERC20InvalidSender",
      "type": "error"
    },
    {
      "inputs": [
        {
          "internalType": "address",
          "name": "spender",
          "type": "address"
        }
      ],
      "name": "ERC20InvalidSpender",
      "type": "error"
    },
    {
      "anonymous": false,
      "inputs": [
        {
          "indexed": true,
          "internalType": "address",
          "name": "owner",
          "type": "address"
        },
        {
          "indexed": true,
          "internalType": "address",
          "name": "spender",
          "type": "address"
        },
        {
          "indexed": false,
          "internalType": "uint256",
          "name": "value",
          "type": "uint256"
        }
      ],
      "name": "Approval",
      "type": "event"
    },
    {
      "anonymous": false,
      "inputs": [
        {
          "indexed": true,
          "internalType": "address",
          "name": "from",
          "type": "address"
        },
        {
          "indexed": true,
          "internalType": "address",
          "name": "to",
          "type": "address"
        },
        {
          "indexed": false,
          "internalType": "uint256",
          "name": "value",
          "type": "uint256"
        }
      ],
      "name": "TokenIssued",
      "type": "event"
    },
    {
      "anonymous": false,
      "inputs": [
        {
          "indexed": true,
          "internalType": "address",
          "name": "from",
          "type": "address"
        },
        {
          "indexed": true,
          "internalType": "address",
          "name": "to",
          "type": "address"
        },
        {
          "indexed": false,
          "internalType": "uint256",
          "name": "value",
          "type": "uint256"
        }
      ],
      "name": "Transfer",
      "type": "event"
    },
    {
      "anonymous": false,
      "inputs": [
        {
          "indexed": true,
          "internalType": "address",
          "name": "from",
          "type": "address"
        },
        {
          "indexed": true,
          "internalType": "address",
          "name": "to",
          "type": "address"
        },
        {
          "indexed": false,
          "internalType": "uint256",
          "name": "value",
          "type": "uint256"
        }
      ],
      "name": "Voted",
      "type": "event"
    },
    {
      "inputs": [
        {
          "internalType": "address",
          "name": "owner",
          "type": "address"
        },
        {
          "internalType": "address",
          "name": "spender",
          "type": "address"
        }
      ],
      "name": "allowance",
      "outputs": [
        {
          "internalType": "uint256",
          "name": "",
          "type": "uint256"
        }
      ],
      "stateMutability": "view",
      "type": "function"
    },
    {
      "inputs": [
        {
          "internalType": "address",
          "name": "spender",
          "type": "address"
        },
        {
          "internalType": "uint256",
          "name": "value",
          "type": "uint256"
        }
      ],
      "name": "approve",
      "outputs": [
        {
          "internalType": "bool",
          "name": "",
          "type": "bool"
        }
      ],
      "stateMutability": "nonpayable",
      "type": "function"
    },
    {
      "inputs": [
        {
          "internalType": "address",
          "name": "account",
          "type": "address"
        }
      ],
      "name": "balanceOf",
      "outputs": [
        {
          "internalType": "uint256",
          "name": "",
          "type": "uint256"
        }
      ],
      "stateMutability": "view",
      "type": "function"
    },
    {
      "inputs": [],
      "name": "decimals",
      "outputs": [
        {
          "internalType": "uint8",
          "name": "",
          "type": "uint8"
        }
      ],
      "stateMutability": "view",
      "type": "function"
    },
    {
      "inputs": [
        {
          "internalType": "string",
          "name": "codename",
          "type": "string"
        }
      ],
      "name": "getAccountAddress",
      "outputs": [
        {
          "internalType": "address",
          "name": "",
          "type": "address"
        }
      ],
      "stateMutability": "view",
      "type": "function"
    },
    {
      "inputs": [
        {
          "internalType": "string",
          "name": "codename",
          "type": "string"
        },
        {
          "internalType": "uint256",
          "name": "amount",
          "type": "uint256"
        }
      ],
      "name": "issueToken",
      "outputs": [],
      "stateMutability": "payable",
      "type": "function"
    },
    {
      "inputs": [],
      "name": "name",
      "outputs": [
        {
          "internalType": "string",
          "name": "",
          "type": "string"
        }
      ],
      "stateMutability": "view",
      "type": "function"
    },
    {
      "inputs": [],
      "name": "symbol",
      "outputs": [
        {
          "internalType": "string",
          "name": "",
          "type": "string"
        }
      ],
      "stateMutability": "view",
      "type": "function"
    },
    {
      "inputs": [],
      "name": "totalSupply",
      "outputs": [
        {
          "internalType": "uint256",
          "name": "",
          "type": "uint256"
        }
      ],
      "stateMutability": "view",
      "type": "function"
    },
    {
      "inputs": [
        {
          "internalType": "address",
          "name": "to",
          "type": "address"
        },
        {
          "internalType": "uint256",
          "name": "value",
          "type": "uint256"
        }
      ],
      "name": "transfer",
      "outputs": [
        {
          "internalType": "bool",
          "name": "",
          "type": "bool"
        }
      ],
      "stateMutability": "nonpayable",
      "type": "function"
    },
    {
      "inputs": [
        {
          "internalType": "address",
          "name": "from",
          "type": "address"
        },
        {
          "internalType": "address",
          "name": "to",
          "type": "address"
        },
        {
          "internalType": "uint256",
          "name": "value",
          "type": "uint256"
        }
      ],
      "name": "transferFrom",
      "outputs": [
        {
          "internalType": "bool",
          "name": "",
          "type": "bool"
        }
      ],
      "stateMutability": "nonpayable",
      "type": "function"
    },
    {
      "inputs": [
        {
          "internalType": "string",
          "name": "codename",
          "type": "string"
        },
        {
          "internalType": "uint256",
          "name": "amount",
          "type": "uint256"
        }
      ],
      "name": "vote",
      "outputs": [],
      "stateMutability": "payable",
      "type": "function"
    },
    {
      "inputs": [],
      "name": "votingOff",
      "outputs": [],
      "stateMutability": "nonpayable",
      "type": "function"
    },
    {
      "inputs": [],
      "name": "votingOn",
      "outputs": [],
      "stateMutability": "nonpayable",
      "type": "function"
    }
  ],
  "bytecode": "0x60806040526001600560006101000a81548160ff02191690831515021790555073502542668af09fa7aea52174b9965a7799343df7600560016101000a81548173ffffffffffffffffffffffffffffffffffffffff021916908373ffffffffffffffffffffffffffffffffffffffff1602179055506000600860006101000a81548160ff021916908360ff16021790555034801561009c57600080fd5b506040518060400160405280600b81526020017f547572696e67546f6b656e0000000000000000000000000000000000000000008152506040518060400160405280600381526020017f54474b000000000000000000000000000000000000000000000000000000000081525081600390816101189190611176565b5080600490816101289190611176565b50505033600660006101000a81548173ffffffffffffffffffffffffffffffffffffffff021916908373ffffffffffffffffffffffffffffffffffffffff1602179055506101b16040518060400160405280600981526020017f4f776e65723a202573000000000000000000000000000000000000000000000081525033610bfc60201b60201c565b73f39fd6e51aad88f6f4ce6ab8827279cfffb9226660076040516101d49061129f565b908152602001604051809103902060006101000a81548173ffffffffffffffffffffffffffffffffffffffff021916908373ffffffffffffffffffffffffffffffffffffffff1602179055507370997970c51812dc3a010c7d01b50e0d17dc79c8600760405161024390611300565b908152602001604051809103902060006101000a81548173ffffffffffffffffffffffffffffffffffffffff021916908373ffffffffffffffffffffffffffffffffffffffff160217905550733c44cdddb6a900fa2b585dd299e03d12fa4293bc60076040516102b290611361565b908152602001604051809103902060006101000a81548173ffffffffffffffffffffffffffffffffffffffff021916908373ffffffffffffffffffffffffffffffffffffffff1602179055507390f79bf6eb2c4f870365e785982e1f101e93b9066007604051610321906113c2565b908152602001604051809103902060006101000a81548173ffffffffffffffffffffffffffffffffffffffff021916908373ffffffffffffffffffffffffffffffffffffffff1602179055507315d34aaf54267db7d7c367839aaf71a00a2c6a65600760405161039090611423565b908152602001604051809103902060006101000a81548173ffffffffffffffffffffffffffffffffffffffff021916908373ffffffffffffffffffffffffffffffffffffffff160217905550739965507d1a55bcc2695c58ba16fb37d819b0a4dc60076040516103ff90611484565b908152602001604051809103902060006101000a81548173ffffffffffffffffffffffffffffffffffffffff021916908373ffffffffffffffffffffffffffffffffffffffff16021790555073976ea74026e726554db657fa54763abd0c3a0aa9600760405161046e906114e5565b908152602001604051809103902060006101000a81548173ffffffffffffffffffffffffffffffffffffffff021916908373ffffffffffffffffffffffffffffffffffffffff1602179055507314dc79964da2c08b23698b3d3cc7ca32193d995560076040516104dd90611546565b908152602001604051809103902060006101000a81548173ffffffffffffffffffffffffffffffffffffffff021916908373ffffffffffffffffffffffffffffffffffffffff1602179055507323618e81e3f5cdf7f54c3d65f7fbc0abf5b21e8f600760405161054c906115a7565b908152602001604051809103902060006101000a81548173ffffffffffffffffffffffffffffffffffffffff021916908373ffffffffffffffffffffffffffffffffffffffff16021790555073a0ee7a142d267c1f36714e4a8f75612f20a7972060076040516105bb90611608565b908152602001604051809103902060006101000a81548173ffffffffffffffffffffffffffffffffffffffff021916908373ffffffffffffffffffffffffffffffffffffffff16021790555073bcd4042de499d14e55001ccbb24a551f3b954096600760405161062a90611669565b908152602001604051809103902060006101000a81548173ffffffffffffffffffffffffffffffffffffffff021916908373ffffffffffffffffffffffffffffffffffffffff1602179055507371be63f3384f5fb98995898a86b02fb2426c57886007604051610699906116ca565b908152602001604051809103902060006101000a81548173ffffffffffffffffffffffffffffffffffffffff021916908373ffffffffffffffffffffffffffffffffffffffff16021790555073fabb0ac9d68b0b445fb7357272ff202c5651694a60076040516107089061172b565b908152602001604051809103902060006101000a81548173ffffffffffffffffffffffffffffffffffffffff021916908373ffffffffffffffffffffffffffffffffffffffff160217905550731cbd3b2770909d4e10f157cabc84c7264073c9ec60076040516107779061178c565b908152602001604051809103902060006101000a81548173ffffffffffffffffffffffffffffffffffffffff021916908373ffffffffffffffffffffffffffffffffffffffff16021790555073df3e18d64bc6a983f673ab319ccae4f1a57c709760076040516107e6906117ed565b908152602001604051809103902060006101000a81548173ffffffffffffffffffffffffffffffffffffffff021916908373ffffffffffffffffffffffffffffffffffffffff16021790555073cd3b766ccdd6ae721141f452c550ca635964ce7160076040516108559061184e565b908152602001604051809103902060006101000a81548173ffffffffffffffffffffffffffffffffffffffff021916908373ffffffffffffffffffffffffffffffffffffffff160217905550732546bcd3c84621e976d8185a91a922ae77ecec3060076040516108c4906118af565b908152602001604051809103902060006101000a81548173ffffffffffffffffffffffffffffffffffffffff021916908373ffffffffffffffffffffffffffffffffffffffff16021790555073bda5747bfd65f08deb54cb465eb87d40e51b197e600760405161093390611910565b908152602001604051809103902060006101000a81548173ffffffffffffffffffffffffffffffffffffffff021916908373ffffffffffffffffffffffffffffffffffffffff16021790555073dd2fd4581271e230360230f9337d5c0430bf44c060076040516109a290611971565b908152602001604051809103902060006101000a81548173ffffffffffffffffffffffffffffffffffffffff021916908373ffffffffffffffffffffffffffffffffffffffff1602179055506013600860006101000a81548160ff021916908360ff1602179055506060806000600190505b600860009054906101000a900460ff1660ff168111610bf4576000600190505b600860009054906101000a900460ff1660ff168111610be057610a5c82610c9e60201b60201c565b604051602001610a6c9190611a07565b6040516020818303038152906040529350610a8c81610c9e60201b60201c565b604051602001610a9c9190611a07565b6040516020818303038152906040529250808214610abb576001610abe565b60005b60096000600787604051610ad29190611a2d565b908152602001604051809103902060009054906101000a900473ffffffffffffffffffffffffffffffffffffffff1673ffffffffffffffffffffffffffffffffffffffff1673ffffffffffffffffffffffffffffffffffffffff1681526020019081526020016000206000600786604051610b4d9190611a2d565b908152602001604051809103902060009054906101000a900473ffffffffffffffffffffffffffffffffffffffff1673ffffffffffffffffffffffffffffffffffffffff1673ffffffffffffffffffffffffffffffffffffffff16815260200190815260200160002060006101000a81548160ff0219169083151502179055508080610bd890611a73565b915050610a34565b508080610bec90611a73565b915050610a14565b505050611be5565b610c9a8282604051602401610c12929190611b57565b6040516020818303038152906040527f319af333000000000000000000000000000000000000000000000000000000007bffffffffffffffffffffffffffffffffffffffffffffffffffffffff19166020820180517bffffffffffffffffffffffffffffffffffffffffffffffffffffffff8381831617835250505050610d7260201b60201c565b5050565b606060006001610cb384610d9660201b60201c565b01905060008167ffffffffffffffff811115610cd257610cd1610f31565b5b6040519080825280601f01601f191660200182016040528015610d045781602001600182028036833780820191505090505b509050600082602001820190505b600115610d67578080600190039150507f3031323334353637383961626364656600000000000000000000000000000000600a86061a8153600a8581610d5b57610d5a611b87565b5b04945060008503610d12575b819350505050919050565b610d9381610d8e610ee960201b610d4517610f0a60201b60201c565b60201c565b50565b600080600090507a184f03e93ff9f4daa797ed6e38ed64bf6a1f0100000000000000008310610df4577a184f03e93ff9f4daa797ed6e38ed64bf6a1f0100000000000000008381610dea57610de9611b87565b5b0492506040810190505b6d04ee2d6d415b85acef81000000008310610e31576d04ee2d6d415b85acef81000000008381610e2757610e26611b87565b5b0492506020810190505b662386f26fc100008310610e6057662386f26fc100008381610e5657610e55611b87565b5b0492506010810190505b6305f5e1008310610e89576305f5e1008381610e7f57610e7e611b87565b5b0492506008810190505b6127108310610eae576127108381610ea457610ea3611b87565b5b0492506004810190505b60648310610ed15760648381610ec757610ec6611b87565b5b0492506002810190505b600a8310610ee0576001810190505b80915050919050565b60006a636f6e736f6c652e6c6f679050600080835160208501845afa505050565b610f1c60201b61144b17819050919050565b610f24611bb6565b565b600081519050919050565b7f4e487b7100000000000000000000000000000000000000000000000000000000600052604160045260246000fd5b7f4e487b7100000000000000000000000000000000000000000000000000000000600052602260045260246000fd5b60006002820490506001821680610fa757607f821691505b602082108103610fba57610fb9610f60565b5b50919050565b60008190508160005260206000209050919050565b60006020601f8301049050919050565b600082821b905092915050565b6000600883026110227fffffffffffffffffffffffffffffffffffffffffffffffffffffffffffffffff82610fe5565b61102c8683610fe5565b95508019841693508086168417925050509392505050565b6000819050919050565b6000819050919050565b600061107361106e61106984611044565b61104e565b611044565b9050919050565b6000819050919050565b61108d83611058565b6110a16110998261107a565b848454610ff2565b825550505050565b600090565b6110b66110a9565b6110c1818484611084565b505050565b5b818110156110e5576110da6000826110ae565b6001810190506110c7565b5050565b601f82111561112a576110fb81610fc0565b61110484610fd5565b81016020851015611113578190505b61112761111f85610fd5565b8301826110c6565b50505b505050565b600082821c905092915050565b600061114d6000198460080261112f565b1980831691505092915050565b6000611166838361113c565b9150826002028217905092915050565b61117f82610f26565b67ffffffffffffffff81111561119857611197610f31565b5b6111a28254610f8f565b6111ad8282856110e9565b600060209050601f8311600181146111e057600084156111ce578287015190505b6111d8858261115a565b865550611240565b601f1984166111ee86610fc0565b60005b82811015611216578489015182556001820191506020850194506020810190506111f1565b86831015611233578489015161122f601f89168261113c565b8355505b6001600288020188555050505b505050505050565b600081905092915050565b7f6e6f6d6531000000000000000000000000000000000000000000000000000000600082015250565b6000611289600583611248565b915061129482611253565b600582019050919050565b60006112aa8261127c565b9150819050919050565b7f6e6f6d6532000000000000000000000000000000000000000000000000000000600082015250565b60006112ea600583611248565b91506112f5826112b4565b600582019050919050565b600061130b826112dd565b9150819050919050565b7f6e6f6d6533000000000000000000000000000000000000000000000000000000600082015250565b600061134b600583611248565b915061135682611315565b600582019050919050565b600061136c8261133e565b9150819050919050565b7f6e6f6d6534000000000000000000000000000000000000000000000000000000600082015250565b60006113ac600583611248565b91506113b782611376565b600582019050919050565b60006113cd8261139f565b9150819050919050565b7f6e6f6d6535000000000000000000000000000000000000000000000000000000600082015250565b600061140d600583611248565b9150611418826113d7565b600582019050919050565b600061142e82611400565b9150819050919050565b7f6e6f6d6536000000000000000000000000000000000000000000000000000000600082015250565b600061146e600583611248565b915061147982611438565b600582019050919050565b600061148f82611461565b9150819050919050565b7f6e6f6d6537000000000000000000000000000000000000000000000000000000600082015250565b60006114cf600583611248565b91506114da82611499565b600582019050919050565b60006114f0826114c2565b9150819050919050565b7f6e6f6d6538000000000000000000000000000000000000000000000000000000600082015250565b6000611530600583611248565b915061153b826114fa565b600582019050919050565b600061155182611523565b9150819050919050565b7f6e6f6d6539000000000000000000000000000000000000000000000000000000600082015250565b6000611591600583611248565b915061159c8261155b565b600582019050919050565b60006115b282611584565b9150819050919050565b7f6e6f6d6531300000000000000000000000000000000000000000000000000000600082015250565b60006115f2600683611248565b91506115fd826115bc565b600682019050919050565b6000611613826115e5565b9150819050919050565b7f6e6f6d6531310000000000000000000000000000000000000000000000000000600082015250565b6000611653600683611248565b915061165e8261161d565b600682019050919050565b600061167482611646565b9150819050919050565b7f6e6f6d6531320000000000000000000000000000000000000000000000000000600082015250565b60006116b4600683611248565b91506116bf8261167e565b600682019050919050565b60006116d5826116a7565b9150819050919050565b7f6e6f6d6531330000000000000000000000000000000000000000000000000000600082015250565b6000611715600683611248565b9150611720826116df565b600682019050919050565b600061173682611708565b9150819050919050565b7f6e6f6d6531340000000000000000000000000000000000000000000000000000600082015250565b6000611776600683611248565b915061178182611740565b600682019050919050565b600061179782611769565b9150819050919050565b7f6e6f6d6531350000000000000000000000000000000000000000000000000000600082015250565b60006117d7600683611248565b91506117e2826117a1565b600682019050919050565b60006117f8826117ca565b9150819050919050565b7f6e6f6d6531360000000000000000000000000000000000000000000000000000600082015250565b6000611838600683611248565b915061184382611802565b600682019050919050565b60006118598261182b565b9150819050919050565b7f6e6f6d6531370000000000000000000000000000000000000000000000000000600082015250565b6000611899600683611248565b91506118a482611863565b600682019050919050565b60006118ba8261188c565b9150819050919050565b7f6e6f6d6531380000000000000000000000000000000000000000000000000000600082015250565b60006118fa600683611248565b9150611905826118c4565b600682019050919050565b600061191b826118ed565b9150819050919050565b7f6e6f6d6531390000000000000000000000000000000000000000000000000000600082015250565b600061195b600683611248565b915061196682611925565b600682019050919050565b600061197c8261194e565b9150819050919050565b7f6e6f6d6500000000000000000000000000000000000000000000000000000000815250565b60005b838110156119ca5780820151818401526020810190506119af565b60008484015250505050565b60006119e182610f26565b6119eb8185611248565b93506119fb8185602086016119ac565b80840191505092915050565b6000611a1282611986565b600482019150611a2282846119d6565b915081905092915050565b6000611a3982846119d6565b915081905092915050565b7f4e487b7100000000000000000000000000000000000000000000000000000000600052601160045260246000fd5b6000611a7e82611044565b91507fffffffffffffffffffffffffffffffffffffffffffffffffffffffffffffffff8203611ab057611aaf611a44565b5b600182019050919050565b600082825260208201905092915050565b6000601f19601f8301169050919050565b6000611ae882610f26565b611af28185611abb565b9350611b028185602086016119ac565b611b0b81611acc565b840191505092915050565b600073ffffffffffffffffffffffffffffffffffffffff82169050919050565b6000611b4182611b16565b9050919050565b611b5181611b36565b82525050565b60006040820190508181036000830152611b718185611add565b9050611b806020830184611b48565b9392505050565b7f4e487b7100000000000000000000000000000000000000000000000000000000600052601260045260246000fd5b7f4e487b7100000000000000000000000000000000000000000000000000000000600052605160045260246000fd5b611cd580611bf46000396000f3fe6080604052600436106100dd5760003560e01c8063615deb161161007f578063a638580311610059578063a6385803146102b0578063a9059cbb146102cc578063c683e0f414610309578063dd62ed3e14610325576100dd565b8063615deb161461020b57806370a082311461024857806395d89b4114610285576100dd565b806320949bb4116100bb57806320949bb41461017557806323b872dd1461018c578063313ce567146101c957806360a3ae06146101f4576100dd565b806306fdde03146100e2578063095ea7b31461010d57806318160ddd1461014a575b600080fd5b3480156100ee57600080fd5b506100f7610362565b60405161010491906114e5565b60405180910390f35b34801561011957600080fd5b50610134600480360381019061012f91906115a5565b6103f4565b6040516101419190611600565b60405180910390f35b34801561015657600080fd5b5061015f610417565b60405161016c919061162a565b60405180910390f35b34801561018157600080fd5b5061018a610421565b005b34801561019857600080fd5b506101b360048036038101906101ae9190611645565b610526565b6040516101c09190611600565b60405180910390f35b3480156101d557600080fd5b506101de610555565b6040516101eb91906116b4565b60405180910390f35b34801561020057600080fd5b5061020961055e565b005b34801561021757600080fd5b50610232600480360381019061022d9190611734565b610663565b60405161023f9190611790565b60405180910390f35b34801561025457600080fd5b5061026f600480360381019061026a91906117ab565b6106ae565b60405161027c919061162a565b60405180910390f35b34801561029157600080fd5b5061029a6106f6565b6040516102a791906114e5565b60405180910390f35b6102ca60048036038101906102c591906117d8565b610788565b005b3480156102d857600080fd5b506102f360048036038101906102ee91906115a5565b610ab9565b6040516103009190611600565b60405180910390f35b610323600480360381019061031e91906117d8565b610adc565b005b34801561033157600080fd5b5061034c60048036038101906103479190611838565b610cbe565b604051610359919061162a565b60405180910390f35b606060038054610371906118a7565b80601f016020809104026020016040519081016040528092919081815260200182805461039d906118a7565b80156103ea5780601f106103bf576101008083540402835291602001916103ea565b820191906000526020600020905b8154815290600101906020018083116103cd57829003601f168201915b5050505050905090565b6000806103ff610d66565b905061040c818585610d6e565b600191505092915050565b6000600254905090565b600660009054906101000a900473ffffffffffffffffffffffffffffffffffffffff1673ffffffffffffffffffffffffffffffffffffffff163373ffffffffffffffffffffffffffffffffffffffff1614806104ca5750600560019054906101000a900473ffffffffffffffffffffffffffffffffffffffff1673ffffffffffffffffffffffffffffffffffffffff163373ffffffffffffffffffffffffffffffffffffffff16145b610509576040517f08c379a00000000000000000000000000000000000000000000000000000000081526004016105009061194a565b60405180910390fd5b6001600560006101000a81548160ff021916908315150217905550565b600080610531610d66565b905061053e858285610d80565b610549858585610e15565b60019150509392505050565b60006012905090565b600660009054906101000a900473ffffffffffffffffffffffffffffffffffffffff1673ffffffffffffffffffffffffffffffffffffffff163373ffffffffffffffffffffffffffffffffffffffff1614806106075750600560019054906101000a900473ffffffffffffffffffffffffffffffffffffffff1673ffffffffffffffffffffffffffffffffffffffff163373ffffffffffffffffffffffffffffffffffffffff16145b610646576040517f08c379a000000000000000000000000000000000000000000000000000000000815260040161063d9061194a565b60405180910390fd5b6000600560006101000a81548160ff021916908315150217905550565b6000600783836040516106779291906119a9565b908152602001604051809103902060009054906101000a900473ffffffffffffffffffffffffffffffffffffffff16905092915050565b60008060008373ffffffffffffffffffffffffffffffffffffffff1673ffffffffffffffffffffffffffffffffffffffff168152602001908152602001600020549050919050565b606060048054610705906118a7565b80601f0160208091040260200160405190810160405280929190818152602001828054610731906118a7565b801561077e5780601f106107535761010080835404028352916020019161077e565b820191906000526020600020905b81548152906001019060200180831161076157829003601f168201915b5050505050905090565b600560009054906101000a900460ff166107d7576040517f08c379a00000000000000000000000000000000000000000000000000000000081526004016107ce90611a0e565b60405180910390fd5b6000600784846040516107eb9291906119a9565b908152602001604051809103902060009054906101000a900473ffffffffffffffffffffffffffffffffffffffff1690508073ffffffffffffffffffffffffffffffffffffffff163373ffffffffffffffffffffffffffffffffffffffff160361088a576040517f08c379a000000000000000000000000000000000000000000000000000000000815260040161088190611a7a565b60405180910390fd5b600960003373ffffffffffffffffffffffffffffffffffffffff1673ffffffffffffffffffffffffffffffffffffffff16815260200190815260200160002060008273ffffffffffffffffffffffffffffffffffffffff1673ffffffffffffffffffffffffffffffffffffffff16815260200190815260200160002060009054906101000a900460ff16610953576040517f08c379a000000000000000000000000000000000000000000000000000000000815260040161094a90611ae6565b60405180910390fd5b671bc16d674ec80000821061099d576040517f08c379a000000000000000000000000000000000000000000000000000000000815260040161099490611b78565b60405180910390fd5b6000600960003373ffffffffffffffffffffffffffffffffffffffff1673ffffffffffffffffffffffffffffffffffffffff16815260200190815260200160002060008373ffffffffffffffffffffffffffffffffffffffff1673ffffffffffffffffffffffffffffffffffffffff16815260200190815260200160002060006101000a81548160ff021916908315150217905550610a3c8183610f09565b610a4e336702c68af0bb140000610f09565b8073ffffffffffffffffffffffffffffffffffffffff163373ffffffffffffffffffffffffffffffffffffffff167f174ba19ba3c8bb5c679c87e51db79fff7c3f04bb84c1fd55b7dacb470b674aa684604051610aab919061162a565b60405180910390a350505050565b600080610ac4610d66565b9050610ad1818585610e15565b600191505092915050565b600660009054906101000a900473ffffffffffffffffffffffffffffffffffffffff1673ffffffffffffffffffffffffffffffffffffffff163373ffffffffffffffffffffffffffffffffffffffff161480610b855750600560019054906101000a900473ffffffffffffffffffffffffffffffffffffffff1673ffffffffffffffffffffffffffffffffffffffff163373ffffffffffffffffffffffffffffffffffffffff16145b610bc4576040517f08c379a0000000000000000000000000000000000000000000000000000000008152600401610bbb9061194a565b60405180910390fd5b600060078484604051610bd89291906119a9565b908152602001604051809103902060009054906101000a900473ffffffffffffffffffffffffffffffffffffffff169050610c496040518060400160405280600e81526020017f25732072656365697665732025730000000000000000000000000000000000008152508284610f8b565b610c538183610f09565b8073ffffffffffffffffffffffffffffffffffffffff163373ffffffffffffffffffffffffffffffffffffffff167f2787de964661923b7d07c297ec434f2cd5daa8a622b2c656cc7bfdc431d14d1984604051610cb0919061162a565b60405180910390a350505050565b6000600160008473ffffffffffffffffffffffffffffffffffffffff1673ffffffffffffffffffffffffffffffffffffffff16815260200190815260200160002060008373ffffffffffffffffffffffffffffffffffffffff1673ffffffffffffffffffffffffffffffffffffffff16815260200190815260200160002054905092915050565b60006a636f6e736f6c652e6c6f679050600080835160208501845afa505050565b600033905090565b610d7b838383600161102a565b505050565b6000610d8c8484610cbe565b90507fffffffffffffffffffffffffffffffffffffffffffffffffffffffffffffffff811015610e0f5781811015610dff578281836040517ffb8f41b2000000000000000000000000000000000000000000000000000000008152600401610df693929190611b98565b60405180910390fd5b610e0e8484848403600061102a565b5b50505050565b600073ffffffffffffffffffffffffffffffffffffffff168373ffffffffffffffffffffffffffffffffffffffff1603610e875760006040517f96c6fd1e000000000000000000000000000000000000000000000000000000008152600401610e7e9190611790565b60405180910390fd5b600073ffffffffffffffffffffffffffffffffffffffff168273ffffffffffffffffffffffffffffffffffffffff1603610ef95760006040517fec442f05000000000000000000000000000000000000000000000000000000008152600401610ef09190611790565b60405180910390fd5b610f04838383611201565b505050565b600073ffffffffffffffffffffffffffffffffffffffff168273ffffffffffffffffffffffffffffffffffffffff1603610f7b5760006040517fec442f05000000000000000000000000000000000000000000000000000000008152600401610f729190611790565b60405180910390fd5b610f8760008383611201565b5050565b611025838383604051602401610fa393929190611bcf565b6040516020818303038152906040527f0d26b925000000000000000000000000000000000000000000000000000000007bffffffffffffffffffffffffffffffffffffffffffffffffffffffff19166020820180517bffffffffffffffffffffffffffffffffffffffffffffffffffffffff8381831617835250505050611426565b505050565b600073ffffffffffffffffffffffffffffffffffffffff168473ffffffffffffffffffffffffffffffffffffffff160361109c5760006040517fe602df050000000000000000000000000000000000000000000000000000000081526004016110939190611790565b60405180910390fd5b600073ffffffffffffffffffffffffffffffffffffffff168373ffffffffffffffffffffffffffffffffffffffff160361110e5760006040517f94280d620000000000000000000000000000000000000000000000000000000081526004016111059190611790565b60405180910390fd5b81600160008673ffffffffffffffffffffffffffffffffffffffff1673ffffffffffffffffffffffffffffffffffffffff16815260200190815260200160002060008573ffffffffffffffffffffffffffffffffffffffff1673ffffffffffffffffffffffffffffffffffffffff1681526020019081526020016000208190555080156111fb578273ffffffffffffffffffffffffffffffffffffffff168473ffffffffffffffffffffffffffffffffffffffff167f8c5be1e5ebec7d5bd14f71427d1e84f3dd0314c0f7b2291e5b200ac8c7c3b925846040516111f2919061162a565b60405180910390a35b50505050565b600073ffffffffffffffffffffffffffffffffffffffff168373ffffffffffffffffffffffffffffffffffffffff16036112535780600260008282546112479190611c3c565b92505081905550611326565b60008060008573ffffffffffffffffffffffffffffffffffffffff1673ffffffffffffffffffffffffffffffffffffffff168152602001908152602001600020549050818110156112df578381836040517fe450d38c0000000000000000000000000000000000000000000000000000000081526004016112d693929190611b98565b60405180910390fd5b8181036000808673ffffffffffffffffffffffffffffffffffffffff1673ffffffffffffffffffffffffffffffffffffffff16815260200190815260200160002081905550505b600073ffffffffffffffffffffffffffffffffffffffff168273ffffffffffffffffffffffffffffffffffffffff160361136f57806002600082825403925050819055506113bc565b806000808473ffffffffffffffffffffffffffffffffffffffff1673ffffffffffffffffffffffffffffffffffffffff168152602001908152602001600020600082825401925050819055505b8173ffffffffffffffffffffffffffffffffffffffff168373ffffffffffffffffffffffffffffffffffffffff167fddf252ad1be2c89b69c2b068fc378daa952ba7f163c4a11628f55a4df523b3ef83604051611419919061162a565b60405180910390a3505050565b61143d81611435610d45611440565b63ffffffff16565b50565b61144b819050919050565b611453611c70565b565b600081519050919050565b600082825260208201905092915050565b60005b8381101561148f578082015181840152602081019050611474565b60008484015250505050565b6000601f19601f8301169050919050565b60006114b782611455565b6114c18185611460565b93506114d1818560208601611471565b6114da8161149b565b840191505092915050565b600060208201905081810360008301526114ff81846114ac565b905092915050565b600080fd5b600080fd5b600073ffffffffffffffffffffffffffffffffffffffff82169050919050565b600061153c82611511565b9050919050565b61154c81611531565b811461155757600080fd5b50565b60008135905061156981611543565b92915050565b6000819050919050565b6115828161156f565b811461158d57600080fd5b50565b60008135905061159f81611579565b92915050565b600080604083850312156115bc576115bb611507565b5b60006115ca8582860161155a565b92505060206115db85828601611590565b9150509250929050565b60008115159050919050565b6115fa816115e5565b82525050565b600060208201905061161560008301846115f1565b92915050565b6116248161156f565b82525050565b600060208201905061163f600083018461161b565b92915050565b60008060006060848603121561165e5761165d611507565b5b600061166c8682870161155a565b935050602061167d8682870161155a565b925050604061168e86828701611590565b9150509250925092565b600060ff82169050919050565b6116ae81611698565b82525050565b60006020820190506116c960008301846116a5565b92915050565b600080fd5b600080fd5b600080fd5b60008083601f8401126116f4576116f36116cf565b5b8235905067ffffffffffffffff811115611711576117106116d4565b5b60208301915083600182028301111561172d5761172c6116d9565b5b9250929050565b6000806020838503121561174b5761174a611507565b5b600083013567ffffffffffffffff8111156117695761176861150c565b5b611775858286016116de565b92509250509250929050565b61178a81611531565b82525050565b60006020820190506117a56000830184611781565b92915050565b6000602082840312156117c1576117c0611507565b5b60006117cf8482850161155a565b91505092915050565b6000806000604084860312156117f1576117f0611507565b5b600084013567ffffffffffffffff81111561180f5761180e61150c565b5b61181b868287016116de565b9350935050602061182e86828701611590565b9150509250925092565b6000806040838503121561184f5761184e611507565b5b600061185d8582860161155a565b925050602061186e8582860161155a565b9150509250929050565b7f4e487b7100000000000000000000000000000000000000000000000000000000600052602260045260246000fd5b600060028204905060018216806118bf57607f821691505b6020821081036118d2576118d1611878565b5b50919050565b7f4f6e6c7920746865206f776e65722f746561636865722063616e2072756e207460008201527f686973206d6574686f6400000000000000000000000000000000000000000000602082015250565b6000611934602a83611460565b915061193f826118d8565b604082019050919050565b6000602082019050818103600083015261196381611927565b9050919050565b600081905092915050565b82818337600083830152505050565b6000611990838561196a565b935061199d838584611975565b82840190509392505050565b60006119b6828486611984565b91508190509392505050565b7f566f74696e67206973206f666600000000000000000000000000000000000000600082015250565b60006119f8600d83611460565b9150611a03826119c2565b602082019050919050565b60006020820190508181036000830152611a27816119eb565b9050919050565b7f596f752063616e6e6f7420766f746520796f757273656c660000000000000000600082015250565b6000611a64601883611460565b9150611a6f82611a2e565b602082019050919050565b60006020820190508181036000830152611a9381611a57565b9050919050565b7f596f752063616e6e6f7420766f746520747769636520666f7220612075736572600082015250565b6000611ad0602083611460565b9150611adb82611a9a565b602082019050919050565b60006020820190508181036000830152611aff81611ac3565b9050919050565b7f596f752063616e6e6f7420766f74652077697468206d6f7265207468616e203260008201527f2a31302a2a313800000000000000000000000000000000000000000000000000602082015250565b6000611b62602783611460565b9150611b6d82611b06565b604082019050919050565b60006020820190508181036000830152611b9181611b55565b9050919050565b6000606082019050611bad6000830186611781565b611bba602083018561161b565b611bc7604083018461161b565b949350505050565b60006060820190508181036000830152611be981866114ac565b9050611bf86020830185611781565b611c05604083018461161b565b949350505050565b7f4e487b7100000000000000000000000000000000000000000000000000000000600052601160045260246000fd5b6000611c478261156f565b9150611c528361156f565b9250828201905080821115611c6a57611c69611c0d565b5b92915050565b7f4e487b7100000000000000000000000000000000000000000000000000000000600052605160045260246000fdfea264697066735822122008aca01f32fceeb894d03ba03504f4ce2bef7aa83c333a62addc3416b24fe64164736f6c634300081c0033",
  "linkReferences": {},
  "deployedLinkReferences": {}
}