{
  "_format": "hh-sol-artifact-1",
  "contractName": "TuringToken",
  "sourceName": "contracts/Turing.sol",
  "abi": [
    {
      "inputs": [],
      "stateMutability": "nonpayable",
      "type": "constructor"
    },
    {
      "inputs": [
        {
          "internalType": "address",
          "name": "spender",
          "type": "address"
        },
        {
          "internalType": "uint256",
          "name": "allowance",
          "type": "uint256"
        },
        {
          "internalType": "uint256",
          "name": "needed",
          "type": "uint256"
        }
      ],
      "name": "ERC20InsufficientAllowance",
      "type": "error"
    },
    {
      "inputs": [
        {
          "internalType": "address",
          "name": "sender",
          "type": "address"
        },
        {
          "internalType": "uint256",
          "name": "balance",
          "type": "uint256"
        },
        {
          "internalType": "uint256",
          "name": "needed",
          "type": "uint256"
        }
      ],
      "name": "ERC20InsufficientBalance",
      "type": "error"
    },
    {
      "inputs": [
        {
          "internalType": "address",
          "name": "approver",
          "type": "address"
        }
      ],
      "name": "ERC20InvalidApprover",
      "type": "error"
    },
    {
      "inputs": [
        {
          "internalType": "address",
          "name": "receiver",
          "type": "address"
        }
      ],
      "name": "ERC20InvalidReceiver",
      "type": "error"
    },
    {
      "inputs": [
        {
          "internalType": "address",
          "name": "sender",
          "type": "address"
        }
      ],
      "name": "ERC20InvalidSender",
      "type": "error"
    },
    {
      "inputs": [
        {
          "internalType": "address",
          "name": "spender",
          "type": "address"
        }
      ],
      "name": "ERC20InvalidSpender",
      "type": "error"
    },
    {
      "anonymous": false,
      "inputs": [
        {
          "indexed": true,
          "internalType": "address",
          "name": "owner",
          "type": "address"
        },
        {
          "indexed": true,
          "internalType": "address",
          "name": "spender",
          "type": "address"
        },
        {
          "indexed": false,
          "internalType": "uint256",
          "name": "value",
          "type": "uint256"
        }
      ],
      "name": "Approval",
      "type": "event"
    },
    {
      "anonymous": false,
      "inputs": [
        {
          "indexed": true,
          "internalType": "address",
          "name": "from",
          "type": "address"
        },
        {
          "indexed": true,
          "internalType": "address",
          "name": "to",
          "type": "address"
        },
        {
          "indexed": false,
          "internalType": "uint256",
          "name": "value",
          "type": "uint256"
        }
      ],
      "name": "TokenIssued",
      "type": "event"
    },
    {
      "anonymous": false,
      "inputs": [
        {
          "indexed": true,
          "internalType": "address",
          "name": "from",
          "type": "address"
        },
        {
          "indexed": true,
          "internalType": "address",
          "name": "to",
          "type": "address"
        },
        {
          "indexed": false,
          "internalType": "uint256",
          "name": "value",
          "type": "uint256"
        }
      ],
      "name": "Transfer",
      "type": "event"
    },
    {
      "anonymous": false,
      "inputs": [
        {
          "indexed": true,
          "internalType": "address",
          "name": "from",
          "type": "address"
        },
        {
          "indexed": true,
          "internalType": "address",
          "name": "to",
          "type": "address"
        },
        {
          "indexed": false,
          "internalType": "uint256",
          "name": "value",
          "type": "uint256"
        }
      ],
      "name": "Voted",
      "type": "event"
    },
    {
      "stateMutability": "payable",
      "type": "fallback"
    },
    {
      "inputs": [
        {
          "internalType": "address",
          "name": "owner",
          "type": "address"
        },
        {
          "internalType": "address",
          "name": "spender",
          "type": "address"
        }
      ],
      "name": "allowance",
      "outputs": [
        {
          "internalType": "uint256",
          "name": "",
          "type": "uint256"
        }
      ],
      "stateMutability": "view",
      "type": "function"
    },
    {
      "inputs": [
        {
          "internalType": "address",
          "name": "spender",
          "type": "address"
        },
        {
          "internalType": "uint256",
          "name": "value",
          "type": "uint256"
        }
      ],
      "name": "approve",
      "outputs": [
        {
          "internalType": "bool",
          "name": "",
          "type": "bool"
        }
      ],
      "stateMutability": "nonpayable",
      "type": "function"
    },
    {
      "inputs": [
        {
          "internalType": "address",
          "name": "account",
          "type": "address"
        }
      ],
      "name": "balanceOf",
      "outputs": [
        {
          "internalType": "uint256",
          "name": "",
          "type": "uint256"
        }
      ],
      "stateMutability": "view",
      "type": "function"
    },
    {
      "inputs": [],
      "name": "decimals",
      "outputs": [
        {
          "internalType": "uint8",
          "name": "",
          "type": "uint8"
        }
      ],
      "stateMutability": "pure",
      "type": "function"
    },
    {
      "inputs": [
        {
          "internalType": "string",
          "name": "codename",
          "type": "string"
        }
      ],
      "name": "getAccountAddress",
      "outputs": [
        {
          "internalType": "address",
          "name": "",
          "type": "address"
        }
      ],
      "stateMutability": "view",
      "type": "function"
    },
    {
      "inputs": [
        {
          "internalType": "string",
          "name": "codename",
          "type": "string"
        },
        {
          "internalType": "uint256",
          "name": "amount",
          "type": "uint256"
        }
      ],
      "name": "issueToken",
      "outputs": [],
      "stateMutability": "payable",
      "type": "function"
    },
    {
      "inputs": [],
      "name": "name",
      "outputs": [
        {
          "internalType": "string",
          "name": "",
          "type": "string"
        }
      ],
      "stateMutability": "view",
      "type": "function"
    },
    {
      "inputs": [
        {
          "internalType": "bytes4",
          "name": "interfaceID",
          "type": "bytes4"
        }
      ],
      "name": "supportsInterface",
      "outputs": [
        {
          "internalType": "bool",
          "name": "",
          "type": "bool"
        }
      ],
      "stateMutability": "pure",
      "type": "function"
    },
    {
      "inputs": [],
      "name": "symbol",
      "outputs": [
        {
          "internalType": "string",
          "name": "",
          "type": "string"
        }
      ],
      "stateMutability": "view",
      "type": "function"
    },
    {
      "inputs": [],
      "name": "totalSupply",
      "outputs": [
        {
          "internalType": "uint256",
          "name": "",
          "type": "uint256"
        }
      ],
      "stateMutability": "view",
      "type": "function"
    },
    {
      "inputs": [
        {
          "internalType": "address",
          "name": "to",
          "type": "address"
        },
        {
          "internalType": "uint256",
          "name": "value",
          "type": "uint256"
        }
      ],
      "name": "transfer",
      "outputs": [
        {
          "internalType": "bool",
          "name": "",
          "type": "bool"
        }
      ],
      "stateMutability": "nonpayable",
      "type": "function"
    },
    {
      "inputs": [
        {
          "internalType": "address",
          "name": "from",
          "type": "address"
        },
        {
          "internalType": "address",
          "name": "to",
          "type": "address"
        },
        {
          "internalType": "uint256",
          "name": "value",
          "type": "uint256"
        }
      ],
      "name": "transferFrom",
      "outputs": [
        {
          "internalType": "bool",
          "name": "",
          "type": "bool"
        }
      ],
      "stateMutability": "nonpayable",
      "type": "function"
    },
    {
      "inputs": [
        {
          "internalType": "string",
          "name": "codename",
          "type": "string"
        },
        {
          "internalType": "uint256",
          "name": "amount",
          "type": "uint256"
        }
      ],
      "name": "vote",
      "outputs": [],
      "stateMutability": "payable",
      "type": "function"
    },
    {
      "inputs": [],
      "name": "votingOff",
      "outputs": [],
      "stateMutability": "nonpayable",
      "type": "function"
    },
    {
      "inputs": [],
      "name": "votingOn",
      "outputs": [],
      "stateMutability": "nonpayable",
      "type": "function"
    },
    {
      "stateMutability": "payable",
      "type": "receive"
    }
  ],
  "bytecode": "0x60806040526001600560006101000a81548160ff02191690831515021790555073502542668af09fa7aea52174b9965a7799343df7600560016101000a81548173ffffffffffffffffffffffffffffffffffffffff021916908373ffffffffffffffffffffffffffffffffffffffff1602179055506000600860006101000a81548160ff021916908360ff16021790555034801561009c57600080fd5b506040518060400160405280600b81526020017f547572696e67546f6b656e0000000000000000000000000000000000000000008152506040518060400160405280600381526020017f54474b000000000000000000000000000000000000000000000000000000000081525081600390816101189190611176565b5080600490816101289190611176565b50505033600660006101000a81548173ffffffffffffffffffffffffffffffffffffffff021916908373ffffffffffffffffffffffffffffffffffffffff1602179055506101b16040518060400160405280600981526020017f4f776e65723a202573000000000000000000000000000000000000000000000081525033610bfc60201b60201c565b73f39fd6e51aad88f6f4ce6ab8827279cfffb9226660076040516101d49061129f565b908152602001604051809103902060006101000a81548173ffffffffffffffffffffffffffffffffffffffff021916908373ffffffffffffffffffffffffffffffffffffffff1602179055507370997970c51812dc3a010c7d01b50e0d17dc79c8600760405161024390611300565b908152602001604051809103902060006101000a81548173ffffffffffffffffffffffffffffffffffffffff021916908373ffffffffffffffffffffffffffffffffffffffff160217905550733c44cdddb6a900fa2b585dd299e03d12fa4293bc60076040516102b290611361565b908152602001604051809103902060006101000a81548173ffffffffffffffffffffffffffffffffffffffff021916908373ffffffffffffffffffffffffffffffffffffffff1602179055507390f79bf6eb2c4f870365e785982e1f101e93b9066007604051610321906113c2565b908152602001604051809103902060006101000a81548173ffffffffffffffffffffffffffffffffffffffff021916908373ffffffffffffffffffffffffffffffffffffffff1602179055507315d34aaf54267db7d7c367839aaf71a00a2c6a65600760405161039090611423565b908152602001604051809103902060006101000a81548173ffffffffffffffffffffffffffffffffffffffff021916908373ffffffffffffffffffffffffffffffffffffffff160217905550739965507d1a55bcc2695c58ba16fb37d819b0a4dc60076040516103ff90611484565b908152602001604051809103902060006101000a81548173ffffffffffffffffffffffffffffffffffffffff021916908373ffffffffffffffffffffffffffffffffffffffff16021790555073976ea74026e726554db657fa54763abd0c3a0aa9600760405161046e906114e5565b908152602001604051809103902060006101000a81548173ffffffffffffffffffffffffffffffffffffffff021916908373ffffffffffffffffffffffffffffffffffffffff1602179055507314dc79964da2c08b23698b3d3cc7ca32193d995560076040516104dd90611546565b908152602001604051809103902060006101000a81548173ffffffffffffffffffffffffffffffffffffffff021916908373ffffffffffffffffffffffffffffffffffffffff1602179055507323618e81e3f5cdf7f54c3d65f7fbc0abf5b21e8f600760405161054c906115a7565b908152602001604051809103902060006101000a81548173ffffffffffffffffffffffffffffffffffffffff021916908373ffffffffffffffffffffffffffffffffffffffff16021790555073a0ee7a142d267c1f36714e4a8f75612f20a7972060076040516105bb90611608565b908152602001604051809103902060006101000a81548173ffffffffffffffffffffffffffffffffffffffff021916908373ffffffffffffffffffffffffffffffffffffffff16021790555073bcd4042de499d14e55001ccbb24a551f3b954096600760405161062a90611669565b908152602001604051809103902060006101000a81548173ffffffffffffffffffffffffffffffffffffffff021916908373ffffffffffffffffffffffffffffffffffffffff1602179055507371be63f3384f5fb98995898a86b02fb2426c57886007604051610699906116ca565b908152602001604051809103902060006101000a81548173ffffffffffffffffffffffffffffffffffffffff021916908373ffffffffffffffffffffffffffffffffffffffff16021790555073fabb0ac9d68b0b445fb7357272ff202c5651694a60076040516107089061172b565b908152602001604051809103902060006101000a81548173ffffffffffffffffffffffffffffffffffffffff021916908373ffffffffffffffffffffffffffffffffffffffff160217905550731cbd3b2770909d4e10f157cabc84c7264073c9ec60076040516107779061178c565b908152602001604051809103902060006101000a81548173ffffffffffffffffffffffffffffffffffffffff021916908373ffffffffffffffffffffffffffffffffffffffff16021790555073df3e18d64bc6a983f673ab319ccae4f1a57c709760076040516107e6906117ed565b908152602001604051809103902060006101000a81548173ffffffffffffffffffffffffffffffffffffffff021916908373ffffffffffffffffffffffffffffffffffffffff16021790555073cd3b766ccdd6ae721141f452c550ca635964ce7160076040516108559061184e565b908152602001604051809103902060006101000a81548173ffffffffffffffffffffffffffffffffffffffff021916908373ffffffffffffffffffffffffffffffffffffffff160217905550732546bcd3c84621e976d8185a91a922ae77ecec3060076040516108c4906118af565b908152602001604051809103902060006101000a81548173ffffffffffffffffffffffffffffffffffffffff021916908373ffffffffffffffffffffffffffffffffffffffff16021790555073bda5747bfd65f08deb54cb465eb87d40e51b197e600760405161093390611910565b908152602001604051809103902060006101000a81548173ffffffffffffffffffffffffffffffffffffffff021916908373ffffffffffffffffffffffffffffffffffffffff16021790555073dd2fd4581271e230360230f9337d5c0430bf44c060076040516109a290611971565b908152602001604051809103902060006101000a81548173ffffffffffffffffffffffffffffffffffffffff021916908373ffffffffffffffffffffffffffffffffffffffff1602179055506013600860006101000a81548160ff021916908360ff1602179055506060806000600190505b600860009054906101000a900460ff1660ff168111610bf4576000600190505b600860009054906101000a900460ff1660ff168111610be057610a5c82610c9e60201b60201c565b604051602001610a6c9190611a07565b6040516020818303038152906040529350610a8c81610c9e60201b60201c565b604051602001610a9c9190611a07565b6040516020818303038152906040529250808214610abb576001610abe565b60005b60096000600787604051610ad29190611a2d565b908152602001604051809103902060009054906101000a900473ffffffffffffffffffffffffffffffffffffffff1673ffffffffffffffffffffffffffffffffffffffff1673ffffffffffffffffffffffffffffffffffffffff1681526020019081526020016000206000600786604051610b4d9190611a2d565b908152602001604051809103902060009054906101000a900473ffffffffffffffffffffffffffffffffffffffff1673ffffffffffffffffffffffffffffffffffffffff1673ffffffffffffffffffffffffffffffffffffffff16815260200190815260200160002060006101000a81548160ff0219169083151502179055508080610bd890611a73565b915050610a34565b508080610bec90611a73565b915050610a14565b505050611be5565b610c9a8282604051602401610c12929190611b57565b6040516020818303038152906040527f319af333000000000000000000000000000000000000000000000000000000007bffffffffffffffffffffffffffffffffffffffffffffffffffffffff19166020820180517bffffffffffffffffffffffffffffffffffffffffffffffffffffffff8381831617835250505050610d7260201b60201c565b5050565b606060006001610cb384610d9660201b60201c565b01905060008167ffffffffffffffff811115610cd257610cd1610f31565b5b6040519080825280601f01601f191660200182016040528015610d045781602001600182028036833780820191505090505b509050600082602001820190505b600115610d67578080600190039150507f3031323334353637383961626364656600000000000000000000000000000000600a86061a8153600a8581610d5b57610d5a611b87565b5b04945060008503610d12575b819350505050919050565b610d9381610d8e610ee960201b61119717610f0a60201b60201c565b60201c565b50565b600080600090507a184f03e93ff9f4daa797ed6e38ed64bf6a1f0100000000000000008310610df4577a184f03e93ff9f4daa797ed6e38ed64bf6a1f0100000000000000008381610dea57610de9611b87565b5b0492506040810190505b6d04ee2d6d415b85acef81000000008310610e31576d04ee2d6d415b85acef81000000008381610e2757610e26611b87565b5b0492506020810190505b662386f26fc100008310610e6057662386f26fc100008381610e5657610e55611b87565b5b0492506010810190505b6305f5e1008310610e89576305f5e1008381610e7f57610e7e611b87565b5b0492506008810190505b6127108310610eae576127108381610ea457610ea3611b87565b5b0492506004810190505b60648310610ed15760648381610ec757610ec6611b87565b5b0492506002810190505b600a8310610ee0576001810190505b80915050919050565b60006a636f6e736f6c652e6c6f679050600080835160208501845afa505050565b610f1c60201b61189d17819050919050565b610f24611bb6565b565b600081519050919050565b7f4e487b7100000000000000000000000000000000000000000000000000000000600052604160045260246000fd5b7f4e487b7100000000000000000000000000000000000000000000000000000000600052602260045260246000fd5b60006002820490506001821680610fa757607f821691505b602082108103610fba57610fb9610f60565b5b50919050565b60008190508160005260206000209050919050565b60006020601f8301049050919050565b600082821b905092915050565b6000600883026110227fffffffffffffffffffffffffffffffffffffffffffffffffffffffffffffffff82610fe5565b61102c8683610fe5565b95508019841693508086168417925050509392505050565b6000819050919050565b6000819050919050565b600061107361106e61106984611044565b61104e565b611044565b9050919050565b6000819050919050565b61108d83611058565b6110a16110998261107a565b848454610ff2565b825550505050565b600090565b6110b66110a9565b6110c1818484611084565b505050565b5b818110156110e5576110da6000826110ae565b6001810190506110c7565b5050565b601f82111561112a576110fb81610fc0565b61110484610fd5565b81016020851015611113578190505b61112761111f85610fd5565b8301826110c6565b50505b505050565b600082821c905092915050565b600061114d6000198460080261112f565b1980831691505092915050565b6000611166838361113c565b9150826002028217905092915050565b61117f82610f26565b67ffffffffffffffff81111561119857611197610f31565b5b6111a28254610f8f565b6111ad8282856110e9565b600060209050601f8311600181146111e057600084156111ce578287015190505b6111d8858261115a565b865550611240565b601f1984166111ee86610fc0565b60005b82811015611216578489015182556001820191506020850194506020810190506111f1565b86831015611233578489015161122f601f89168261113c565b8355505b6001600288020188555050505b505050505050565b600081905092915050565b7f6e6f6d6531000000000000000000000000000000000000000000000000000000600082015250565b6000611289600583611248565b915061129482611253565b600582019050919050565b60006112aa8261127c565b9150819050919050565b7f6e6f6d6532000000000000000000000000000000000000000000000000000000600082015250565b60006112ea600583611248565b91506112f5826112b4565b600582019050919050565b600061130b826112dd565b9150819050919050565b7f6e6f6d6533000000000000000000000000000000000000000000000000000000600082015250565b600061134b600583611248565b915061135682611315565b600582019050919050565b600061136c8261133e565b9150819050919050565b7f6e6f6d6534000000000000000000000000000000000000000000000000000000600082015250565b60006113ac600583611248565b91506113b782611376565b600582019050919050565b60006113cd8261139f565b9150819050919050565b7f6e6f6d6535000000000000000000000000000000000000000000000000000000600082015250565b600061140d600583611248565b9150611418826113d7565b600582019050919050565b600061142e82611400565b9150819050919050565b7f6e6f6d6536000000000000000000000000000000000000000000000000000000600082015250565b600061146e600583611248565b915061147982611438565b600582019050919050565b600061148f82611461565b9150819050919050565b7f6e6f6d6537000000000000000000000000000000000000000000000000000000600082015250565b60006114cf600583611248565b91506114da82611499565b600582019050919050565b60006114f0826114c2565b9150819050919050565b7f6e6f6d6538000000000000000000000000000000000000000000000000000000600082015250565b6000611530600583611248565b915061153b826114fa565b600582019050919050565b600061155182611523565b9150819050919050565b7f6e6f6d6539000000000000000000000000000000000000000000000000000000600082015250565b6000611591600583611248565b915061159c8261155b565b600582019050919050565b60006115b282611584565b9150819050919050565b7f6e6f6d6531300000000000000000000000000000000000000000000000000000600082015250565b60006115f2600683611248565b91506115fd826115bc565b600682019050919050565b6000611613826115e5565b9150819050919050565b7f6e6f6d6531310000000000000000000000000000000000000000000000000000600082015250565b6000611653600683611248565b915061165e8261161d565b600682019050919050565b600061167482611646565b9150819050919050565b7f6e6f6d6531320000000000000000000000000000000000000000000000000000600082015250565b60006116b4600683611248565b91506116bf8261167e565b600682019050919050565b60006116d5826116a7565b9150819050919050565b7f6e6f6d6531330000000000000000000000000000000000000000000000000000600082015250565b6000611715600683611248565b9150611720826116df565b600682019050919050565b600061173682611708565b9150819050919050565b7f6e6f6d6531340000000000000000000000000000000000000000000000000000600082015250565b6000611776600683611248565b915061178182611740565b600682019050919050565b600061179782611769565b9150819050919050565b7f6e6f6d6531350000000000000000000000000000000000000000000000000000600082015250565b60006117d7600683611248565b91506117e2826117a1565b600682019050919050565b60006117f8826117ca565b9150819050919050565b7f6e6f6d6531360000000000000000000000000000000000000000000000000000600082015250565b6000611838600683611248565b915061184382611802565b600682019050919050565b60006118598261182b565b9150819050919050565b7f6e6f6d6531370000000000000000000000000000000000000000000000000000600082015250565b6000611899600683611248565b91506118a482611863565b600682019050919050565b60006118ba8261188c565b9150819050919050565b7f6e6f6d6531380000000000000000000000000000000000000000000000000000600082015250565b60006118fa600683611248565b9150611905826118c4565b600682019050919050565b600061191b826118ed565b9150819050919050565b7f6e6f6d6531390000000000000000000000000000000000000000000000000000600082015250565b600061195b600683611248565b915061196682611925565b600682019050919050565b600061197c8261194e565b9150819050919050565b7f6e6f6d6500000000000000000000000000000000000000000000000000000000815250565b60005b838110156119ca5780820151818401526020810190506119af565b60008484015250505050565b60006119e182610f26565b6119eb8185611248565b93506119fb8185602086016119ac565b80840191505092915050565b6000611a1282611986565b600482019150611a2282846119d6565b915081905092915050565b6000611a3982846119d6565b915081905092915050565b7f4e487b7100000000000000000000000000000000000000000000000000000000600052601160045260246000fd5b6000611a7e82611044565b91507fffffffffffffffffffffffffffffffffffffffffffffffffffffffffffffffff8203611ab057611aaf611a44565b5b600182019050919050565b600082825260208201905092915050565b6000601f19601f8301169050919050565b6000611ae882610f26565b611af28185611abb565b9350611b028185602086016119ac565b611b0b81611acc565b840191505092915050565b600073ffffffffffffffffffffffffffffffffffffffff82169050919050565b6000611b4182611b16565b9050919050565b611b5181611b36565b82525050565b60006040820190508181036000830152611b718185611add565b9050611b806020830184611b48565b9392505050565b7f4e487b7100000000000000000000000000000000000000000000000000000000600052601260045260246000fd5b7f4e487b7100000000000000000000000000000000000000000000000000000000600052605160045260246000fd5b61242480611bf46000396000f3fe6080604052600436106100ec5760003560e01c806360a3ae061161008a578063a638580311610059578063a63858031461037e578063a9059cbb1461039a578063c683e0f4146103d7578063dd62ed3e146103f357610132565b806360a3ae06146102c2578063615deb16146102d957806370a082311461031657806395d89b411461035357610132565b806318160ddd116100c657806318160ddd1461021857806320949bb41461024357806323b872dd1461025a578063313ce5671461029757610132565b806301ffc9a71461017357806306fdde03146101b0578063095ea7b3146101db57610132565b36610132576101306040518060400160405280600e81526020017f2d2d2d2d2d20726563656976653a00000000000000000000000000000000000081525034610430565b005b6101716040518060400160405280600f81526020017f2d2d2d2d2d2066616c6c6261636b3a000000000000000000000000000000000081525034610430565b005b34801561017f57600080fd5b5061019a60048036038101906101959190611909565b6104cc565b6040516101a79190611951565b60405180910390f35b3480156101bc57600080fd5b506101c5610536565b6040516101d291906119fc565b60405180910390f35b3480156101e757600080fd5b5061020260048036038101906101fd9190611ab2565b6105c8565b60405161020f9190611951565b60405180910390f35b34801561022457600080fd5b5061022d6105eb565b60405161023a9190611b01565b60405180910390f35b34801561024f57600080fd5b506102586105f5565b005b34801561026657600080fd5b50610281600480360381019061027c9190611b1c565b6106fa565b60405161028e9190611951565b60405180910390f35b3480156102a357600080fd5b506102ac610729565b6040516102b99190611b8b565b60405180910390f35b3480156102ce57600080fd5b506102d7610732565b005b3480156102e557600080fd5b5061030060048036038101906102fb9190611c0b565b610837565b60405161030d9190611c67565b60405180910390f35b34801561032257600080fd5b5061033d60048036038101906103389190611c82565b610882565b60405161034a9190611b01565b60405180910390f35b34801561035f57600080fd5b506103686108ca565b60405161037591906119fc565b60405180910390f35b61039860048036038101906103939190611caf565b61095c565b005b3480156103a657600080fd5b506103c160048036038101906103bc9190611ab2565b610e5c565b6040516103ce9190611951565b60405180910390f35b6103f160048036038101906103ec9190611caf565b610e7f565b005b3480156103ff57600080fd5b5061041a60048036038101906104159190611d0f565b611110565b6040516104279190611b01565b60405180910390f35b6104c88282604051602401610446929190611d4f565b6040516020818303038152906040527fb60e72cc000000000000000000000000000000000000000000000000000000007bffffffffffffffffffffffffffffffffffffffffffffffffffffffff19166020820180517bffffffffffffffffffffffffffffffffffffffffffffffffffffffff83818316178352505050506111b8565b5050565b60007f36372b07000000000000000000000000000000000000000000000000000000007bffffffffffffffffffffffffffffffffffffffffffffffffffffffff1916827bffffffffffffffffffffffffffffffffffffffffffffffffffffffff1916149050919050565b60606003805461054590611dae565b80601f016020809104026020016040519081016040528092919081815260200182805461057190611dae565b80156105be5780601f10610593576101008083540402835291602001916105be565b820191906000526020600020905b8154815290600101906020018083116105a157829003601f168201915b5050505050905090565b6000806105d36111d2565b90506105e08185856111da565b600191505092915050565b6000600254905090565b600660009054906101000a900473ffffffffffffffffffffffffffffffffffffffff1673ffffffffffffffffffffffffffffffffffffffff163373ffffffffffffffffffffffffffffffffffffffff16148061069e5750600560019054906101000a900473ffffffffffffffffffffffffffffffffffffffff1673ffffffffffffffffffffffffffffffffffffffff163373ffffffffffffffffffffffffffffffffffffffff16145b6106dd576040517f08c379a00000000000000000000000000000000000000000000000000000000081526004016106d490611e51565b60405180910390fd5b6001600560006101000a81548160ff021916908315150217905550565b6000806107056111d2565b90506107128582856111ec565b61071d858585611281565b60019150509392505050565b60006012905090565b600660009054906101000a900473ffffffffffffffffffffffffffffffffffffffff1673ffffffffffffffffffffffffffffffffffffffff163373ffffffffffffffffffffffffffffffffffffffff1614806107db5750600560019054906101000a900473ffffffffffffffffffffffffffffffffffffffff1673ffffffffffffffffffffffffffffffffffffffff163373ffffffffffffffffffffffffffffffffffffffff16145b61081a576040517f08c379a000000000000000000000000000000000000000000000000000000000815260040161081190611e51565b60405180910390fd5b6000600560006101000a81548160ff021916908315150217905550565b60006007838360405161084b929190611eb0565b908152602001604051809103902060009054906101000a900473ffffffffffffffffffffffffffffffffffffffff16905092915050565b60008060008373ffffffffffffffffffffffffffffffffffffffff1673ffffffffffffffffffffffffffffffffffffffff168152602001908152602001600020549050919050565b6060600480546108d990611dae565b80601f016020809104026020016040519081016040528092919081815260200182805461090590611dae565b80156109525780601f1061092757610100808354040283529160200191610952565b820191906000526020600020905b81548152906001019060200180831161093557829003601f168201915b5050505050905090565b600560009054906101000a900460ff166109ab576040517f08c379a00000000000000000000000000000000000000000000000000000000081526004016109a290611f15565b60405180910390fd5b600073ffffffffffffffffffffffffffffffffffffffff16600784846040516109d5929190611eb0565b908152602001604051809103902060009054906101000a900473ffffffffffffffffffffffffffffffffffffffff1673ffffffffffffffffffffffffffffffffffffffff1603610a5a576040517f08c379a0000000000000000000000000000000000000000000000000000000008152600401610a5190611fcd565b60405180910390fd5b600060078484604051610a6e929190611eb0565b908152602001604051809103902060009054906101000a900473ffffffffffffffffffffffffffffffffffffffff1690508073ffffffffffffffffffffffffffffffffffffffff163373ffffffffffffffffffffffffffffffffffffffff1603610b0d576040517f08c379a0000000000000000000000000000000000000000000000000000000008152600401610b0490612039565b60405180910390fd5b600960003373ffffffffffffffffffffffffffffffffffffffff1673ffffffffffffffffffffffffffffffffffffffff16815260200190815260200160002060008273ffffffffffffffffffffffffffffffffffffffff1673ffffffffffffffffffffffffffffffffffffffff16815260200190815260200160002060009054906101000a900460ff16610bd6576040517f08c379a0000000000000000000000000000000000000000000000000000000008152600401610bcd906120a5565b60405180910390fd5b671bc16d674ec800008210610c20576040517f08c379a0000000000000000000000000000000000000000000000000000000008152600401610c1790612137565b60405180910390fd5b600660009054906101000a900473ffffffffffffffffffffffffffffffffffffffff1673ffffffffffffffffffffffffffffffffffffffff163373ffffffffffffffffffffffffffffffffffffffff1603610cb0576040517f08c379a0000000000000000000000000000000000000000000000000000000008152600401610ca7906121a3565b60405180910390fd5b600560019054906101000a900473ffffffffffffffffffffffffffffffffffffffff1673ffffffffffffffffffffffffffffffffffffffff163373ffffffffffffffffffffffffffffffffffffffff1603610d40576040517f08c379a0000000000000000000000000000000000000000000000000000000008152600401610d379061220f565b60405180910390fd5b6000600960003373ffffffffffffffffffffffffffffffffffffffff1673ffffffffffffffffffffffffffffffffffffffff16815260200190815260200160002060008373ffffffffffffffffffffffffffffffffffffffff1673ffffffffffffffffffffffffffffffffffffffff16815260200190815260200160002060006101000a81548160ff021916908315150217905550610ddf8183611375565b610df1336702c68af0bb140000611375565b8073ffffffffffffffffffffffffffffffffffffffff163373ffffffffffffffffffffffffffffffffffffffff167f174ba19ba3c8bb5c679c87e51db79fff7c3f04bb84c1fd55b7dacb470b674aa684604051610e4e9190611b01565b60405180910390a350505050565b600080610e676111d2565b9050610e74818585611281565b600191505092915050565b600660009054906101000a900473ffffffffffffffffffffffffffffffffffffffff1673ffffffffffffffffffffffffffffffffffffffff163373ffffffffffffffffffffffffffffffffffffffff161480610f285750600560019054906101000a900473ffffffffffffffffffffffffffffffffffffffff1673ffffffffffffffffffffffffffffffffffffffff163373ffffffffffffffffffffffffffffffffffffffff16145b610f67576040517f08c379a0000000000000000000000000000000000000000000000000000000008152600401610f5e90611e51565b60405180910390fd5b600073ffffffffffffffffffffffffffffffffffffffff1660078484604051610f91929190611eb0565b908152602001604051809103902060009054906101000a900473ffffffffffffffffffffffffffffffffffffffff1673ffffffffffffffffffffffffffffffffffffffff1603611016576040517f08c379a000000000000000000000000000000000000000000000000000000000815260040161100d906122c7565b60405180910390fd5b60006007848460405161102a929190611eb0565b908152602001604051809103902060009054906101000a900473ffffffffffffffffffffffffffffffffffffffff16905061109b6040518060400160405280600e81526020017f257320726563656976657320257300000000000000000000000000000000000081525082846113f7565b6110a58183611375565b8073ffffffffffffffffffffffffffffffffffffffff163373ffffffffffffffffffffffffffffffffffffffff167f2787de964661923b7d07c297ec434f2cd5daa8a622b2c656cc7bfdc431d14d19846040516111029190611b01565b60405180910390a350505050565b6000600160008473ffffffffffffffffffffffffffffffffffffffff1673ffffffffffffffffffffffffffffffffffffffff16815260200190815260200160002060008373ffffffffffffffffffffffffffffffffffffffff1673ffffffffffffffffffffffffffffffffffffffff16815260200190815260200160002054905092915050565b60006a636f6e736f6c652e6c6f679050600080835160208501845afa505050565b6111cf816111c7611197611496565b63ffffffff16565b50565b600033905090565b6111e783838360016114a1565b505050565b60006111f88484611110565b90507fffffffffffffffffffffffffffffffffffffffffffffffffffffffffffffffff81101561127b578181101561126b578281836040517ffb8f41b2000000000000000000000000000000000000000000000000000000008152600401611262939291906122e7565b60405180910390fd5b61127a848484840360006114a1565b5b50505050565b600073ffffffffffffffffffffffffffffffffffffffff168373ffffffffffffffffffffffffffffffffffffffff16036112f35760006040517f96c6fd1e0000000000000000000000000000000000000000000000000000000081526004016112ea9190611c67565b60405180910390fd5b600073ffffffffffffffffffffffffffffffffffffffff168273ffffffffffffffffffffffffffffffffffffffff16036113655760006040517fec442f0500000000000000000000000000000000000000000000000000000000815260040161135c9190611c67565b60405180910390fd5b611370838383611678565b505050565b600073ffffffffffffffffffffffffffffffffffffffff168273ffffffffffffffffffffffffffffffffffffffff16036113e75760006040517fec442f050000000000000000000000000000000000000000000000000000000081526004016113de9190611c67565b60405180910390fd5b6113f360008383611678565b5050565b61149183838360405160240161140f9392919061231e565b6040516020818303038152906040527f0d26b925000000000000000000000000000000000000000000000000000000007bffffffffffffffffffffffffffffffffffffffffffffffffffffffff19166020820180517bffffffffffffffffffffffffffffffffffffffffffffffffffffffff83818316178352505050506111b8565b505050565b61189d819050919050565b600073ffffffffffffffffffffffffffffffffffffffff168473ffffffffffffffffffffffffffffffffffffffff16036115135760006040517fe602df0500000000000000000000000000000000000000000000000000000000815260040161150a9190611c67565b60405180910390fd5b600073ffffffffffffffffffffffffffffffffffffffff168373ffffffffffffffffffffffffffffffffffffffff16036115855760006040517f94280d6200000000000000000000000000000000000000000000000000000000815260040161157c9190611c67565b60405180910390fd5b81600160008673ffffffffffffffffffffffffffffffffffffffff1673ffffffffffffffffffffffffffffffffffffffff16815260200190815260200160002060008573ffffffffffffffffffffffffffffffffffffffff1673ffffffffffffffffffffffffffffffffffffffff168152602001908152602001600020819055508015611672578273ffffffffffffffffffffffffffffffffffffffff168473ffffffffffffffffffffffffffffffffffffffff167f8c5be1e5ebec7d5bd14f71427d1e84f3dd0314c0f7b2291e5b200ac8c7c3b925846040516116699190611b01565b60405180910390a35b50505050565b600073ffffffffffffffffffffffffffffffffffffffff168373ffffffffffffffffffffffffffffffffffffffff16036116ca5780600260008282546116be919061238b565b9250508190555061179d565b60008060008573ffffffffffffffffffffffffffffffffffffffff1673ffffffffffffffffffffffffffffffffffffffff16815260200190815260200160002054905081811015611756578381836040517fe450d38c00000000000000000000000000000000000000000000000000000000815260040161174d939291906122e7565b60405180910390fd5b8181036000808673ffffffffffffffffffffffffffffffffffffffff1673ffffffffffffffffffffffffffffffffffffffff16815260200190815260200160002081905550505b600073ffffffffffffffffffffffffffffffffffffffff168273ffffffffffffffffffffffffffffffffffffffff16036117e65780600260008282540392505081905550611833565b806000808473ffffffffffffffffffffffffffffffffffffffff1673ffffffffffffffffffffffffffffffffffffffff168152602001908152602001600020600082825401925050819055505b8173ffffffffffffffffffffffffffffffffffffffff168373ffffffffffffffffffffffffffffffffffffffff167fddf252ad1be2c89b69c2b068fc378daa952ba7f163c4a11628f55a4df523b3ef836040516118909190611b01565b60405180910390a3505050565b6118a56123bf565b565b600080fd5b600080fd5b60007fffffffff0000000000000000000000000000000000000000000000000000000082169050919050565b6118e6816118b1565b81146118f157600080fd5b50565b600081359050611903816118dd565b92915050565b60006020828403121561191f5761191e6118a7565b5b600061192d848285016118f4565b91505092915050565b60008115159050919050565b61194b81611936565b82525050565b60006020820190506119666000830184611942565b92915050565b600081519050919050565b600082825260208201905092915050565b60005b838110156119a657808201518184015260208101905061198b565b60008484015250505050565b6000601f19601f8301169050919050565b60006119ce8261196c565b6119d88185611977565b93506119e8818560208601611988565b6119f1816119b2565b840191505092915050565b60006020820190508181036000830152611a1681846119c3565b905092915050565b600073ffffffffffffffffffffffffffffffffffffffff82169050919050565b6000611a4982611a1e565b9050919050565b611a5981611a3e565b8114611a6457600080fd5b50565b600081359050611a7681611a50565b92915050565b6000819050919050565b611a8f81611a7c565b8114611a9a57600080fd5b50565b600081359050611aac81611a86565b92915050565b60008060408385031215611ac957611ac86118a7565b5b6000611ad785828601611a67565b9250506020611ae885828601611a9d565b9150509250929050565b611afb81611a7c565b82525050565b6000602082019050611b166000830184611af2565b92915050565b600080600060608486031215611b3557611b346118a7565b5b6000611b4386828701611a67565b9350506020611b5486828701611a67565b9250506040611b6586828701611a9d565b9150509250925092565b600060ff82169050919050565b611b8581611b6f565b82525050565b6000602082019050611ba06000830184611b7c565b92915050565b600080fd5b600080fd5b600080fd5b60008083601f840112611bcb57611bca611ba6565b5b8235905067ffffffffffffffff811115611be857611be7611bab565b5b602083019150836001820283011115611c0457611c03611bb0565b5b9250929050565b60008060208385031215611c2257611c216118a7565b5b600083013567ffffffffffffffff811115611c4057611c3f6118ac565b5b611c4c85828601611bb5565b92509250509250929050565b611c6181611a3e565b82525050565b6000602082019050611c7c6000830184611c58565b92915050565b600060208284031215611c9857611c976118a7565b5b6000611ca684828501611a67565b91505092915050565b600080600060408486031215611cc857611cc76118a7565b5b600084013567ffffffffffffffff811115611ce657611ce56118ac565b5b611cf286828701611bb5565b93509350506020611d0586828701611a9d565b9150509250925092565b60008060408385031215611d2657611d256118a7565b5b6000611d3485828601611a67565b9250506020611d4585828601611a67565b9150509250929050565b60006040820190508181036000830152611d6981856119c3565b9050611d786020830184611af2565b9392505050565b7f4e487b7100000000000000000000000000000000000000000000000000000000600052602260045260246000fd5b60006002820490506001821680611dc657607f821691505b602082108103611dd957611dd8611d7f565b5b50919050565b7f4f6e6c7920746865206f776e65722f746561636865722063616e2072756e207460008201527f686973206d6574686f6400000000000000000000000000000000000000000000602082015250565b6000611e3b602a83611977565b9150611e4682611ddf565b604082019050919050565b60006020820190508181036000830152611e6a81611e2e565b9050919050565b600081905092915050565b82818337600083830152505050565b6000611e978385611e71565b9350611ea4838584611e7c565b82840190509392505050565b6000611ebd828486611e8b565b91508190509392505050565b7f566f74696e67206973206f666600000000000000000000000000000000000000600082015250565b6000611eff600d83611977565b9150611f0a82611ec9565b602082019050919050565b60006020820190508181036000830152611f2e81611ef2565b9050919050565b7f766f7465206661696c656420626563617573652074686520726571756573746560008201527f6420636f64656e616d6520646f6573206e6f7420657869737420696e2074686960208201527f7320636f6e747261637400000000000000000000000000000000000000000000604082015250565b6000611fb7604a83611977565b9150611fc282611f35565b606082019050919050565b60006020820190508181036000830152611fe681611faa565b9050919050565b7f596f752063616e6e6f7420766f746520796f757273656c660000000000000000600082015250565b6000612023601883611977565b915061202e82611fed565b602082019050919050565b6000602082019050818103600083015261205281612016565b9050919050565b7f596f752063616e6e6f7420766f746520747769636520666f7220612075736572600082015250565b600061208f602083611977565b915061209a82612059565b602082019050919050565b600060208201905081810360008301526120be81612082565b9050919050565b7f596f752063616e6e6f7420766f74652077697468206d6f7265207468616e203260008201527f2a31302a2a313800000000000000000000000000000000000000000000000000602082015250565b6000612121602783611977565b915061212c826120c5565b604082019050919050565b6000602082019050818103600083015261215081612114565b9050919050565b7f546865206f776e65722063616e6e6f7420766f74650000000000000000000000600082015250565b600061218d601583611977565b915061219882612157565b602082019050919050565b600060208201905081810360008301526121bc81612180565b9050919050565b7f54686520746561636865722063616e6e6f7420766f7465000000000000000000600082015250565b60006121f9601783611977565b9150612204826121c3565b602082019050919050565b60006020820190508181036000830152612228816121ec565b9050919050565b7f6973737565546f6b656e206661696c656420626563617573652074686520726560008201527f7175657374656420636f64656e616d6520646f6573206e6f742065786973742060208201527f696e207468697320636f6e747261637400000000000000000000000000000000604082015250565b60006122b1605083611977565b91506122bc8261222f565b606082019050919050565b600060208201905081810360008301526122e0816122a4565b9050919050565b60006060820190506122fc6000830186611c58565b6123096020830185611af2565b6123166040830184611af2565b949350505050565b6000606082019050818103600083015261233881866119c3565b90506123476020830185611c58565b6123546040830184611af2565b949350505050565b7f4e487b7100000000000000000000000000000000000000000000000000000000600052601160045260246000fd5b600061239682611a7c565b91506123a183611a7c565b92508282019050808211156123b9576123b861235c565b5b92915050565b7f4e487b7100000000000000000000000000000000000000000000000000000000600052605160045260246000fdfea26469706673582212202776cba4fa27f0993f32b1b272f3324f6a5574dd1ef9bea6f059d609f34a1bcc64736f6c634300081c0033",
  "linkReferences": {},
  "deployedLinkReferences": {}
}